{
	"data": {
		"bytecode": {
			"linkReferences": {},
			"object": "608060405234801561000f575f80fd5b5061050c8061001d5f395ff3fe608060405234801561000f575f80fd5b5060043610610086575f3560e01c8063c8e662c711610059578063c8e662c7146100fe578063cca787c81461011a578063cf2fda9e14610138578063f38c1ce61461015457610086565b8063237a68f41461008a57806398ebef0e146100a8578063c0d1806d146100c4578063c3e9ae62146100e2575b5f80fd5b610092610172565b60405161009f9190610204565b60405180910390f35b6100c260048036038101906100bd919061024b565b61017b565b005b6100cc610191565b6040516100d99190610204565b60405180910390f35b6100fc60048036038101906100f7919061024b565b610199565b005b6101186004803603810190610113919061024b565b6101ae565b005b6101226101c4565b60405161012f9190610204565b60405180910390f35b610152600480360381019061014d919061024b565b6101cd565b005b61015c6101e3565b6040516101699190610204565b60405180910390f35b5f600254905090565b808261018791906102b6565b6001819055505050565b5f8054905090565b80826101a591906102e9565b5f819055505050565b80826101ba919061031c565b6002819055505050565b5f600154905090565b80826101d9919061048c565b6003819055505050565b5f600354905090565b5f819050919050565b6101fe816101ec565b82525050565b5f6020820190506102175f8301846101f5565b92915050565b5f80fd5b61022a816101ec565b8114610234575f80fd5b50565b5f8135905061024581610221565b92915050565b5f80604083850312156102615761026061021d565b5b5f61026e85828601610237565b925050602061027f85828601610237565b9150509250929050565b7f4e487b71000000000000000000000000000000000000000000000000000000005f52601160045260245ffd5b5f6102c0826101ec565b91506102cb836101ec565b92508282019050808211156102e3576102e2610289565b5b92915050565b5f6102f3826101ec565b91506102fe836101ec565b925082820390508181111561031657610315610289565b5b92915050565b5f610326826101ec565b9150610331836101ec565b925082820261033f816101ec565b9150828204841483151761035657610355610289565b5b5092915050565b5f8160011c9050919050565b5f808291508390505b60018511156103b25780860481111561038e5761038d610289565b5b600185161561039d5780820291505b80810290506103ab8561035d565b9450610372565b94509492505050565b5f826103ca5760019050610485565b816103d7575f9050610485565b81600181146103ed57600281146103f757610426565b6001915050610485565b60ff84111561040957610408610289565b5b8360020a9150848211156104205761041f610289565b5b50610485565b5060208310610133831016604e8410600b841016171561045b5782820a90508381111561045657610455610289565b5b610485565b6104688484846001610369565b9250905081840481111561047f5761047e610289565b5b81810290505b9392505050565b5f610496826101ec565b91506104a1836101ec565b92506104ce7fffffffffffffffffffffffffffffffffffffffffffffffffffffffffffffffff84846103bb565b90509291505056fea264697066735822122045142511d9090807e45fba196ac40e64217d45cd2ae13a958b8aa46825724f1a64736f6c63430008140033",
			"opcodes": "PUSH1 0x80 PUSH1 0x40 MSTORE CALLVALUE DUP1 ISZERO PUSH2 0xF JUMPI PUSH0 DUP1 REVERT JUMPDEST POP PUSH2 0x50C DUP1 PUSH2 0x1D PUSH0 CODECOPY PUSH0 RETURN INVALID PUSH1 0x80 PUSH1 0x40 MSTORE CALLVALUE DUP1 ISZERO PUSH2 0xF JUMPI PUSH0 DUP1 REVERT JUMPDEST POP PUSH1 0x4 CALLDATASIZE LT PUSH2 0x86 JUMPI PUSH0 CALLDATALOAD PUSH1 0xE0 SHR DUP1 PUSH4 0xC8E662C7 GT PUSH2 0x59 JUMPI DUP1 PUSH4 0xC8E662C7 EQ PUSH2 0xFE JUMPI DUP1 PUSH4 0xCCA787C8 EQ PUSH2 0x11A JUMPI DUP1 PUSH4 0xCF2FDA9E EQ PUSH2 0x138 JUMPI DUP1 PUSH4 0xF38C1CE6 EQ PUSH2 0x154 JUMPI PUSH2 0x86 JUMP JUMPDEST DUP1 PUSH4 0x237A68F4 EQ PUSH2 0x8A JUMPI DUP1 PUSH4 0x98EBEF0E EQ PUSH2 0xA8 JUMPI DUP1 PUSH4 0xC0D1806D EQ PUSH2 0xC4 JUMPI DUP1 PUSH4 0xC3E9AE62 EQ PUSH2 0xE2 JUMPI JUMPDEST PUSH0 DUP1 REVERT JUMPDEST PUSH2 0x92 PUSH2 0x172 JUMP JUMPDEST PUSH1 0x40 MLOAD PUSH2 0x9F SWAP2 SWAP1 PUSH2 0x204 JUMP JUMPDEST PUSH1 0x40 MLOAD DUP1 SWAP2 SUB SWAP1 RETURN JUMPDEST PUSH2 0xC2 PUSH1 0x4 DUP1 CALLDATASIZE SUB DUP2 ADD SWAP1 PUSH2 0xBD SWAP2 SWAP1 PUSH2 0x24B JUMP JUMPDEST PUSH2 0x17B JUMP JUMPDEST STOP JUMPDEST PUSH2 0xCC PUSH2 0x191 JUMP JUMPDEST PUSH1 0x40 MLOAD PUSH2 0xD9 SWAP2 SWAP1 PUSH2 0x204 JUMP JUMPDEST PUSH1 0x40 MLOAD DUP1 SWAP2 SUB SWAP1 RETURN JUMPDEST PUSH2 0xFC PUSH1 0x4 DUP1 CALLDATASIZE SUB DUP2 ADD SWAP1 PUSH2 0xF7 SWAP2 SWAP1 PUSH2 0x24B JUMP JUMPDEST PUSH2 0x199 JUMP JUMPDEST STOP JUMPDEST PUSH2 0x118 PUSH1 0x4 DUP1 CALLDATASIZE SUB DUP2 ADD SWAP1 PUSH2 0x113 SWAP2 SWAP1 PUSH2 0x24B JUMP JUMPDEST PUSH2 0x1AE JUMP JUMPDEST STOP JUMPDEST PUSH2 0x122 PUSH2 0x1C4 JUMP JUMPDEST PUSH1 0x40 MLOAD PUSH2 0x12F SWAP2 SWAP1 PUSH2 0x204 JUMP JUMPDEST PUSH1 0x40 MLOAD DUP1 SWAP2 SUB SWAP1 RETURN JUMPDEST PUSH2 0x152 PUSH1 0x4 DUP1 CALLDATASIZE SUB DUP2 ADD SWAP1 PUSH2 0x14D SWAP2 SWAP1 PUSH2 0x24B JUMP JUMPDEST PUSH2 0x1CD JUMP JUMPDEST STOP JUMPDEST PUSH2 0x15C PUSH2 0x1E3 JUMP JUMPDEST PUSH1 0x40 MLOAD PUSH2 0x169 SWAP2 SWAP1 PUSH2 0x204 JUMP JUMPDEST PUSH1 0x40 MLOAD DUP1 SWAP2 SUB SWAP1 RETURN JUMPDEST PUSH0 PUSH1 0x2 SLOAD SWAP1 POP SWAP1 JUMP JUMPDEST DUP1 DUP3 PUSH2 0x187 SWAP2 SWAP1 PUSH2 0x2B6 JUMP JUMPDEST PUSH1 0x1 DUP2 SWAP1 SSTORE POP POP POP JUMP JUMPDEST PUSH0 DUP1 SLOAD SWAP1 POP SWAP1 JUMP JUMPDEST DUP1 DUP3 PUSH2 0x1A5 SWAP2 SWAP1 PUSH2 0x2E9 JUMP JUMPDEST PUSH0 DUP2 SWAP1 SSTORE POP POP POP JUMP JUMPDEST DUP1 DUP3 PUSH2 0x1BA SWAP2 SWAP1 PUSH2 0x31C JUMP JUMPDEST PUSH1 0x2 DUP2 SWAP1 SSTORE POP POP POP JUMP JUMPDEST PUSH0 PUSH1 0x1 SLOAD SWAP1 POP SWAP1 JUMP JUMPDEST DUP1 DUP3 PUSH2 0x1D9 SWAP2 SWAP1 PUSH2 0x48C JUMP JUMPDEST PUSH1 0x3 DUP2 SWAP1 SSTORE POP POP POP JUMP JUMPDEST PUSH0 PUSH1 0x3 SLOAD SWAP1 POP SWAP1 JUMP JUMPDEST PUSH0 DUP2 SWAP1 POP SWAP2 SWAP1 POP JUMP JUMPDEST PUSH2 0x1FE DUP2 PUSH2 0x1EC JUMP JUMPDEST DUP3 MSTORE POP POP JUMP JUMPDEST PUSH0 PUSH1 0x20 DUP3 ADD SWAP1 POP PUSH2 0x217 PUSH0 DUP4 ADD DUP5 PUSH2 0x1F5 JUMP JUMPDEST SWAP3 SWAP2 POP POP JUMP JUMPDEST PUSH0 DUP1 REVERT JUMPDEST PUSH2 0x22A DUP2 PUSH2 0x1EC JUMP JUMPDEST DUP2 EQ PUSH2 0x234 JUMPI PUSH0 DUP1 REVERT JUMPDEST POP JUMP JUMPDEST PUSH0 DUP2 CALLDATALOAD SWAP1 POP PUSH2 0x245 DUP2 PUSH2 0x221 JUMP JUMPDEST SWAP3 SWAP2 POP POP JUMP JUMPDEST PUSH0 DUP1 PUSH1 0x40 DUP4 DUP6 SUB SLT ISZERO PUSH2 0x261 JUMPI PUSH2 0x260 PUSH2 0x21D JUMP JUMPDEST JUMPDEST PUSH0 PUSH2 0x26E DUP6 DUP3 DUP7 ADD PUSH2 0x237 JUMP JUMPDEST SWAP3 POP POP PUSH1 0x20 PUSH2 0x27F DUP6 DUP3 DUP7 ADD PUSH2 0x237 JUMP JUMPDEST SWAP2 POP POP SWAP3 POP SWAP3 SWAP1 POP JUMP JUMPDEST PUSH32 0x4E487B7100000000000000000000000000000000000000000000000000000000 PUSH0 MSTORE PUSH1 0x11 PUSH1 0x4 MSTORE PUSH1 0x24 PUSH0 REVERT JUMPDEST PUSH0 PUSH2 0x2C0 DUP3 PUSH2 0x1EC JUMP JUMPDEST SWAP2 POP PUSH2 0x2CB DUP4 PUSH2 0x1EC JUMP JUMPDEST SWAP3 POP DUP3 DUP3 ADD SWAP1 POP DUP1 DUP3 GT ISZERO PUSH2 0x2E3 JUMPI PUSH2 0x2E2 PUSH2 0x289 JUMP JUMPDEST JUMPDEST SWAP3 SWAP2 POP POP JUMP JUMPDEST PUSH0 PUSH2 0x2F3 DUP3 PUSH2 0x1EC JUMP JUMPDEST SWAP2 POP PUSH2 0x2FE DUP4 PUSH2 0x1EC JUMP JUMPDEST SWAP3 POP DUP3 DUP3 SUB SWAP1 POP DUP2 DUP2 GT ISZERO PUSH2 0x316 JUMPI PUSH2 0x315 PUSH2 0x289 JUMP JUMPDEST JUMPDEST SWAP3 SWAP2 POP POP JUMP JUMPDEST PUSH0 PUSH2 0x326 DUP3 PUSH2 0x1EC JUMP JUMPDEST SWAP2 POP PUSH2 0x331 DUP4 PUSH2 0x1EC JUMP JUMPDEST SWAP3 POP DUP3 DUP3 MUL PUSH2 0x33F DUP2 PUSH2 0x1EC JUMP JUMPDEST SWAP2 POP DUP3 DUP3 DIV DUP5 EQ DUP4 ISZERO OR PUSH2 0x356 JUMPI PUSH2 0x355 PUSH2 0x289 JUMP JUMPDEST JUMPDEST POP SWAP3 SWAP2 POP POP JUMP JUMPDEST PUSH0 DUP2 PUSH1 0x1 SHR SWAP1 POP SWAP2 SWAP1 POP JUMP JUMPDEST PUSH0 DUP1 DUP3 SWAP2 POP DUP4 SWAP1 POP JUMPDEST PUSH1 0x1 DUP6 GT ISZERO PUSH2 0x3B2 JUMPI DUP1 DUP7 DIV DUP2 GT ISZERO PUSH2 0x38E JUMPI PUSH2 0x38D PUSH2 0x289 JUMP JUMPDEST JUMPDEST PUSH1 0x1 DUP6 AND ISZERO PUSH2 0x39D JUMPI DUP1 DUP3 MUL SWAP2 POP JUMPDEST DUP1 DUP2 MUL SWAP1 POP PUSH2 0x3AB DUP6 PUSH2 0x35D JUMP JUMPDEST SWAP5 POP PUSH2 0x372 JUMP JUMPDEST SWAP5 POP SWAP5 SWAP3 POP POP POP JUMP JUMPDEST PUSH0 DUP3 PUSH2 0x3CA JUMPI PUSH1 0x1 SWAP1 POP PUSH2 0x485 JUMP JUMPDEST DUP2 PUSH2 0x3D7 JUMPI PUSH0 SWAP1 POP PUSH2 0x485 JUMP JUMPDEST DUP2 PUSH1 0x1 DUP2 EQ PUSH2 0x3ED JUMPI PUSH1 0x2 DUP2 EQ PUSH2 0x3F7 JUMPI PUSH2 0x426 JUMP JUMPDEST PUSH1 0x1 SWAP2 POP POP PUSH2 0x485 JUMP JUMPDEST PUSH1 0xFF DUP5 GT ISZERO PUSH2 0x409 JUMPI PUSH2 0x408 PUSH2 0x289 JUMP JUMPDEST JUMPDEST DUP4 PUSH1 0x2 EXP SWAP2 POP DUP5 DUP3 GT ISZERO PUSH2 0x420 JUMPI PUSH2 0x41F PUSH2 0x289 JUMP JUMPDEST JUMPDEST POP PUSH2 0x485 JUMP JUMPDEST POP PUSH1 0x20 DUP4 LT PUSH2 0x133 DUP4 LT AND PUSH1 0x4E DUP5 LT PUSH1 0xB DUP5 LT AND OR ISZERO PUSH2 0x45B JUMPI DUP3 DUP3 EXP SWAP1 POP DUP4 DUP2 GT ISZERO PUSH2 0x456 JUMPI PUSH2 0x455 PUSH2 0x289 JUMP JUMPDEST JUMPDEST PUSH2 0x485 JUMP JUMPDEST PUSH2 0x468 DUP5 DUP5 DUP5 PUSH1 0x1 PUSH2 0x369 JUMP JUMPDEST SWAP3 POP SWAP1 POP DUP2 DUP5 DIV DUP2 GT ISZERO PUSH2 0x47F JUMPI PUSH2 0x47E PUSH2 0x289 JUMP JUMPDEST JUMPDEST DUP2 DUP2 MUL SWAP1 POP JUMPDEST SWAP4 SWAP3 POP POP POP JUMP JUMPDEST PUSH0 PUSH2 0x496 DUP3 PUSH2 0x1EC JUMP JUMPDEST SWAP2 POP PUSH2 0x4A1 DUP4 PUSH2 0x1EC JUMP JUMPDEST SWAP3 POP PUSH2 0x4CE PUSH32 0xFFFFFFFFFFFFFFFFFFFFFFFFFFFFFFFFFFFFFFFFFFFFFFFFFFFFFFFFFFFFFFFF DUP5 DUP5 PUSH2 0x3BB JUMP JUMPDEST SWAP1 POP SWAP3 SWAP2 POP POP JUMP INVALID LOG2 PUSH5 0x6970667358 0x22 SLT KECCAK256 GASLIMIT EQ 0x25 GT 0xD9 MULMOD ADDMOD SMOD 0xE4 PUSH0 0xBA NOT PUSH11 0xC40E64217D45CD2AE13A95 DUP12 DUP11 LOG4 PUSH9 0x25724F1A64736F6C63 NUMBER STOP ADDMOD EQ STOP CALLER "
		},
		"gasEstimates": {
			"creation": {
				"codeDepositCost": "258400",
				"executionCost": "298",
				"totalCost": "258698"
			},
			"external": {
				"pengurangan(uint256,uint256)": "infinite",
				"perkalian(uint256,uint256)": "infinite",
				"perpangkatan(uint256,uint256)": "infinite",
				"pertambahan(uint256,uint256)": "infinite",
				"readHasilPengurangan()": "2477",
				"readHasilPerkalian()": "2433",
				"readHasilPerpangkatan()": "2498",
				"readHasilPertambahan()": "2454"
			}
		},
		"methodIdentifiers": {
			"pengurangan(uint256,uint256)": "c3e9ae62",
			"perkalian(uint256,uint256)": "c8e662c7",
			"perpangkatan(uint256,uint256)": "cf2fda9e",
			"pertambahan(uint256,uint256)": "98ebef0e",
			"readHasilPengurangan()": "c0d1806d",
			"readHasilPerkalian()": "237a68f4",
			"readHasilPerpangkatan()": "f38c1ce6",
			"readHasilPertambahan()": "cca787c8"
		}
	},
	"abi": [
		{
			"inputs": [
				{
					"internalType": "uint256",
					"name": "_a",
					"type": "uint256"
				},
				{
					"internalType": "uint256",
					"name": "_b",
					"type": "uint256"
				}
			],
			"name": "pengurangan",
			"outputs": [],
			"stateMutability": "nonpayable",
			"type": "function"
		},
		{
			"inputs": [
				{
					"internalType": "uint256",
					"name": "_a",
					"type": "uint256"
				},
				{
					"internalType": "uint256",
					"name": "_b",
					"type": "uint256"
				}
			],
			"name": "perkalian",
			"outputs": [],
			"stateMutability": "nonpayable",
			"type": "function"
		},
		{
			"inputs": [
				{
					"internalType": "uint256",
					"name": "_a",
					"type": "uint256"
				},
				{
					"internalType": "uint256",
					"name": "_b",
					"type": "uint256"
				}
			],
			"name": "perpangkatan",
			"outputs": [],
			"stateMutability": "nonpayable",
			"type": "function"
		},
		{
			"inputs": [
				{
					"internalType": "uint256",
					"name": "_a",
					"type": "uint256"
				},
				{
					"internalType": "uint256",
					"name": "_b",
					"type": "uint256"
				}
			],
			"name": "pertambahan",
			"outputs": [],
			"stateMutability": "nonpayable",
			"type": "function"
		},
		{
			"inputs": [],
			"name": "readHasilPengurangan",
			"outputs": [
				{
					"internalType": "uint256",
					"name": "",
					"type": "uint256"
				}
			],
			"stateMutability": "view",
			"type": "function"
		},
		{
			"inputs": [],
			"name": "readHasilPerkalian",
			"outputs": [
				{
					"internalType": "uint256",
					"name": "",
					"type": "uint256"
				}
			],
			"stateMutability": "view",
			"type": "function"
		},
		{
			"inputs": [],
			"name": "readHasilPerpangkatan",
			"outputs": [
				{
					"internalType": "uint256",
					"name": "",
					"type": "uint256"
				}
			],
			"stateMutability": "view",
			"type": "function"
		},
		{
			"inputs": [],
			"name": "readHasilPertambahan",
			"outputs": [
				{
					"internalType": "uint256",
					"name": "",
					"type": "uint256"
				}
			],
			"stateMutability": "view",
			"type": "function"
		}
	]
}